:020000040000FA
:020000000828CE
:100008007E1480317E100900092860308400003099
:100018008500083085311E258031A03084000030ED
:100028008500203085311E2580317E1020008F2BE1
:100038002000B6002F08BE002E08BD002D08BC0009
:100048002C08BB00BE1B29282B2801302C28003087
:10005800B000B1013008B9003108BA0039083A04D3
:100068000319372838284328BB09BC09BD09BE092C
:10007800BB0A0319BC0A0319BD0A0319BE0AE51B0A
:10008800462847284B28FD30E605FF30E705650878
:10009800803AB00080303002031D542801306402D9
:1000A8000318572858285E2801302000B400003073
:1000B800B500632820006508B5006408B40063082B
:1000C800B8006208B70039083A04031D6C286D2887
:1000D8007228661D7028712876287228FF30B707A5
:1000E800FF30B83D1F30BF000030C0003F08A03EC1
:1000F800860087018101CE28FF302000BF07FF302E
:10010800C03D0030F3000030F2000030F1000A304A
:10011800F0003E08F7003D08F6003C08F5003B08F3
:10012800F4008231B22280317108FC007008FB00B3
:100138008431C62480317B08303E2000B0003F085F
:10014800A03E8600870130088100FF30B407FF30E9
:10015800B53DFF30B707FF30B83D0030F300003041
:10016800F2000030F1000A30F0003E08F7003D08C8
:10017800F6003C08F5003B08F40082311922803172
:1001880073082000BE007208BD007108BC0070082A
:10019800BB00CE284008803AB00080303002031DF2
:1001A800D72801303F02031CDA28DB280729200062
:1001B8003E083D043C043B04031DE328E428802852
:1001C8003508803AB00080303002031DED28013038
:1001D80034020318F028F128802820003808803AD3
:1001E800B00080303002031DFB2801303702031CA9
:1001F800FE28FF2807292000E6180329042980285B
:10020800072907290729200039083A04031D0D2961
:100218000E291329661D1129122930291329FF30A7
:10022800BF07FF30C03D39083A04031D1C291D29AA
:1002380022292B30B2000030B30027292D30B2001C
:100248000030B30027293208B0003F08A03E8600DE
:1002580087013008810030293F08A03EB0003008EF
:10026800A4003808A6003708A500360883313623CD
:10027800803120002508AD002408AC00432908007F
:100288002000CC00410886008701403FC300413F61
:10029800C40043088400440885001200253A031D61
:1002A80056295729F129410886008701013081071D
:1002B80041310318810AE201E301E601E701FF3059
:1002C800E400FF30E500410886008701403FC30095
:1002D800413FC40043088400440885001200643A82
:1002E8000319772978298A29410886008701403F20
:1002F800C300413FC400430884004408850012003D
:10030800693A031D88298929BA298A29410886005A
:1003180087010130810741310318810A42088600AC
:10032800870101088400850102308107003FC3006E
:10033800013FC4004308C8004408C900890D893B2F
:100348008909CA00CB004B08AF004A08AE0049082B
:10035800AD004808AC004C0880311C2081312000D9
:100368002D08C2002C08C100182A182A4108860046
:100378008701403FC300413FC4004308840044084C
:1003880085001200253A031DCA29CB29E529410811
:10039800860087010130810741310318810A253021
:1003A800F0000030F1004C08C3004308F20083312C
:1003B800D623813101302000C1000030C200182A44
:1003C800182A410886008701013081074131031846
:1003D800810AC101C201182A182A4108860087012A
:1003E800403FC300413FC4004308840044088500DF
:1003F8000008C500C6014508F0004608F1004C0891
:10040800C7004708F2008331D62381312000410814
:10041800860087010130810741310318810A0130C4
:10042800C1000030C200182A08002000A101F31FF3
:100438001E2A1F2A2C2AF009F109F209F309F00AE9
:100448000319F10A0319F20A0319F30AA101A10A0F
:10045800F71F2F2A302A402AF409F509F609F70967
:10046800F40A0319F50A0319F60A0319F70A013001
:10047800F8007808A106402A0030A5000030A40042
:100488000030A3000030A2007308720471047004E5
:1004980003194F2A502A972AA001A00A5F2A01307F
:1004A800F035F10DF20DF30D890B542A0130F800E7
:1004B8007808A0075F2AF31F622A632A532A652A4D
:1004C800652A0130A235A30DA40DA50D890B662A56
:1004D80073087702031D7A2A72087602031D7A2AA6
:1004E80071087502031D7A2A70087402031C7D2A9C
:1004F8007E2A882A7008F4027108F53B7208F63BD8
:100508007308F73B2214882A0130F336F20CF10CF9
:10051800F00C890B892A0130A002031D942A952A20
:10052800652A972A972A210803199B2A9C2AA82A10
:10053800A209A309A409A509A20A0319A30A031970
:10054800A40A0319A50AA82A2508F3002408F2001A
:100558002308F1002208F000B12A0800FA01F71F69
:10056800B62AB72AC42AF409F509F609F709F40ADC
:100578000319F50A0319F60A0319F70AFA01FA0A20
:10058800F31FC72AC82AD42AF009F109F209F30986
:10059800F00A0319F10A0319F20A0319F30AD42A13
:1005A80073087204710470040319DB2ADC2A1B2BFC
:1005B800F901F90AEB2A0130F035F10DF20DF30DCE
:1005C800890BE02A0130F8007808F907EB2AF31FB5
:1005D800EE2AEF2ADF2AF12AF12A73087702031D8F
:1005E800FF2A72087602031DFF2A71087502031D8F
:1005F800FF2A70087402031C022B032B0C2B7008B3
:10060800F4027108F53B7208F63B7308F73B0C2BB4
:100618000130F336F20CF10CF00C890B0D2B013084
:10062800F902031D182B192BF12A1B2B1B2B7A08F7
:1006380003191F2B202B2C2BF409F509F609F709B0
:10064800F40A0319F50A0319F60A0319F70A2C2BF9
:100658007708F3007608F2007508F1007408F000D6
:10066800352B08002000AB00661C3B2B3C2B452B90
:100678002B08FC007C08F80024088431732483319B
:10068800452B2000A61B492B4A2B4F2B2608AA00D6
:100698002508A900512BA901AA01A701A801662BC9
:1006A8002030F0000030F10020002B08FC007C080E
:1006B800F2008331D623833101302000A7070030B0
:1006C800A83D662B2808803AFC002A08803A7C025C
:1006D800031D702B29082702031C732B742B542B22
:1006E80020006618782B792B812B2B08FC007C08BE
:1006F800F8002408843173248331200024088431CD
:100708009D248331200029087007A4002A08713D20
:10071800A5008E2B080020008C121B3021008C00B5
:1007280006308E0020008C16E330D5008430D600C9
:100738000130D7000030D8000030D900DA00843109
:10074800FB2483317A302000DF00C130DE008130A5
:10075800890BAC2BDE0BAC2BDF0BAC2B00321A3029
:100768002000D5008430D6008431FB248331BC2B93
:1007780020000C1AC02BC12BBC2B8C12C32B0C1EB7
:10078800C62BC72BC32B8C161330D5008530D6004B
:100798008431FB248331D02BD02BD02BD02B2000BD
:1007A8008C12082872080319DA2BDB2BE12B72084C
:1007B800031DDF2BE02BE62BE12B70088531242568
:1007C8008331192C7208033E860087011600010444
:1007D8000319EF2BF02B0E2C7208033E86008701BD
:1007E800403FF300413FF400720A86008701403F12
:1007F800F500413FF6007608803AF7007408803A21
:100808007702031D092C7308750203180C2C0D2C94
:10081800192C0E2C720A860087010130810741319C
:100828000318810A192C192C192C08005334653423
:100838007434203474346834653420347034653446
:100848006E34643475346C3475346D3473342034D8
:1008580069346E3420346D346F34743469346F34D1
:100868006E342C3420347434683465346E34203457
:1008780070347234653473347334203453347434BC
:1008880061347234743400342000D2004E08D4002D
:100898004D08D300E001E101632C5330D00050082B
:1008A800C1004F08D1005108C200520881314421CB
:1008B800843120004108E0074208E13D632C5308D9
:1008C8008400540885001200031D6B2C6C2C512CDD
:1008D8006D2C6108CE006008CD00722C0800200045
:1008E800A300A101A2018C2C2008F900FA017908C3
:1008F800F0007A08F1007808FB007B08F2008331E9
:10090800D623843101302000A1070030A23D8C2C71
:1009180021082307F9007908860087010108FA00F1
:100928007A08A0002008031D9A2C9B2C782C9C2C5C
:100938000800F7007708F2007208F600A82C0130CA
:10094800F2007208F707A82C7708860087010108CB
:10095800031DAF2CB02CA32CB12C7608F20000306C
:10096800F300F209F309F20A0319F30A7708F4000D
:100978000030F50072087407F0007308753DF10047
:10098800C52C08007C08803A2000A0008030200296
:10099800031DD02C01307B020318D32CD42CE12C5E
:1009A8007B092000A0007C09A100A00A0319A10A64
:1009B8002008FB002108FC00E22CE22C0800463449
:1009C800693472346D347734613472346534203468
:1009D800763465347234733469346F346E343A342F
:1009E8002034253464342E342534643400345730AC
:1009F800FD007D082000DD005608CE005508CD001A
:100A08005D30FD007D08CF000030843148248431FA
:100A180020004E08DC004D08DB00122D080052347F
:100A280075346E346E3469346E3467342E342E3433
:100A38002E340034640080010131890B1F2D0034ED
:020A48000800A4
:020000040001F9
:08000E008AD7F1FDFCFFFCFFA5
:00000001FF
