:020000040000FA
:08000000803102288731DD2F59
:1000CA000800640080010131890B67280034573029
:1000DA00FD007D082000DD005608CE005508CD0041
:1000EA005D30FD007D08CF00003081310E21803166
:1000FA0020004E08DC004D08DB00832808002100A0
:10010A009112111214303C00A40015303D00A500D4
:10011A0023000E128E1221000E168E1223001D13BA
:10012A001E131E111E129E169D171D1233309B00A0
:10013A0008007C08803A2000A00080302002031DBD
:10014A00A82801307B020318AB28AC28B9287B0900
:10015A002000A0007C09A100A00A0319A10A200816
:10016A00FB002108FC00BA28BA280800F700770823
:10017A00F2007208F600C6280130F2007208F7078A
:10018A00C6287708860087010108031DCD28CE28D6
:10019A00C128CF287608F2000030F300F209F309EB
:1001AA00F20A0319F30A7708F4000030F50072081E
:1001BA007407F0007308753DF100E3280800200079
:1001CA00A300A101A201FD282008F900FA0179087B
:1001DA00F0007A08F1007808FB007B08F200813110
:1001EA003921803101302000A1070030A23DFD28CD
:1001FA0021082307F9007908860087010108FA0017
:10020A007A08A0002008031D0B290C29E9280D29CA
:10021A0008002000D2004E08D4004D08D300E001A7
:10022A00E10129295330D0005008C1004F08D100FC
:10023A005108C20052088431DD248131200041086E
:10024A00E0074208E13D2929530884005408850043
:10025A001200031D31293229172933296108CE00DA
:10026A006008CD0038290800720803193D293E2983
:10027A0044297208031D422943294929442970083F
:10028A008031652081317C297208033E860087010E
:10029A001600010403195229532971297208033ED1
:1002AA0086008701403FF300413FF400720A86004E
:1002BA008701403FF500413FF6007608803AF70093
:1002CA007408803A7702031D6C29730875020318B3
:1002DA006F2970297C297129720A860087010130E9
:1002EA00810741310318810A7C297C297C2908006D
:1002FA002000AB00661C822983298C292B08FC006C
:10030A007C08F80024088031E42081318C292000FF
:10031A00A61B9029912996292608AA002508A90032
:10032A009829A901AA01A701A801AD292030F00046
:10033A000030F10020002B08FC007C08F20081311B
:10034A003921813101302000A7070030A83DAD29AD
:10035A002808803AFC002A08803A7C02031DB72943
:10036A0029082702031CBA29BB299B2920006618E1
:10037A00BF29C029C8292B08FC007C08F8002408DA
:10038A008031E4208131200024088031BB20813172
:10039A00200029087007A4002A08713DA500D52964
:1003AA0008000030FC000030FB000030FA0000308A
:1003BA00F90073087204710470040319E529E62927
:1003CA002D2AFD01FD0AF5290130F035F10DF20D56
:1003DA00F30D890BEA290130F8007808FD07F529A1
:1003EA00F31FF829F929E929FB29FB290130F935F5
:1003FA00FA0DFB0DFC0D890BFC2973087702031D0E
:10040A00102A72087602031D102A71087502031D4C
:10041A00102A70087402031C132A142A1E2A700850
:10042A00F4027108F53B7208F63B7308F73B79143E
:10043A001E2A0130F336F20CF10CF00C890B1F2A3C
:10044A000130FD02031D2A2A2B2AFB292D2A2D2AD7
:10045A007C08F3007B08F2007A08F1007908F000C2
:10046A00362A0800F601F11F3B2A3C2A442AF009E1
:10047A00F109F00A0319F10AF601F60A442AF31FF0
:10048A00472A482A522AF209F309F20A0319F30AF7
:10049A000130F4007408F606522AF701F8017008D0
:1004AA0071040319592A5A2A8F2AF501F50A672A6B
:1004BA000130F035F10D890B5E2A0130F400740821
:1004CA00F507672AF11F6A2A6B2A5D2A6D2A6D2AA7
:1004DA000130F735F80D890B6E2A71087302031D76
:1004EA00782A70087202031C7B2A7C2A822A7008E6
:1004FA00F2027108F33B7714822A0130F136F00CCC
:10050A00890B832A0130F502031D8C2A8D2A6D2A54
:10051A008F2A8F2A76080319932A942A9A2AF70986
:10052A00F809F70A0319F80A9A2A7808F1007708ED
:10053A00F0009F2A0800FA01F71FA42AA52AB22A66
:10054A00F409F509F609F709F40A0319F50A031972
:10055A00F60A0319F70AFA01FA0AF31FB52AB62AA4
:10056A00C22AF009F109F209F309F00A0319F10A9A
:10057A000319F20A0319F30AC22A730872047104EE
:10058A0070040319C92ACA2A092BF901F90AD92AB6
:10059A000130F035F10DF20DF30D890BCE2A013041
:1005AA00F8007808F907D92AF31FDC2ADD2ACD2AB0
:1005BA00DF2ADF2A73087702031DED2A7208760202
:1005CA00031DED2A71087502031DED2A70087402D5
:1005DA00031CF02AF12AFA2A7008F4027108F53B82
:1005EA007208F63B7308F73BFA2A0130F336F20C2D
:1005FA00F10CF00C890BFB2A0130F902031D062BC2
:10060A00072BDF2A092B092B7A0803190D2B0E2B2E
:10061A001A2BF409F509F609F709F40A0319F50A78
:10062A000319F60A0319F70A1A2B7708F300760852
:10063A00F2007508F1007408F000232B080020006E
:10064A008C12A030860001308700A0308400003070
:10065A0085002F30DE0016001A00DE0B302B20300A
:10066A0086000230870020308400013085002F3058
:10067A00DE0016001A00DE0B3E2B1B3021008C0018
:10068A0006308E001030200097004D3098008031DF
:10069A008420833120008C160030D5008830D600A3
:1006AA000130D7000030D8000030D900DA0080319C
:1006BA006C2083317A302000DF00C130DE008130C7
:1006CA00890B652BDE0B652BDF0B652B0032233084
:1006DA002000D5008830D60080316C20833112305A
:1006EA002000D5008830D60080316C2083317D2BE4
:1006FA0020000C1A812B822B7D2B8C12842B0C1E32
:10070A00872B882B842B8C163330D5008830D60063
:10071A0080316C20833120302000DE005E08F90031
:10072A00A0308331B1238331A0302000A0000030F3
:10073A00A1008531B225833120302000A00001308C
:10074A00A1008531B2258331AA2BAA2BAA2BAA2B69
:10075A0020008C1280310228FD00200097172B2CD4
:10076A0020008E18B92BBA2BEE2B7D088600870144
:10077A00153001020318C22BC32B2B2C7D30F0003D
:10078A000030F1001608FB001508FA000730FA35A8
:10079A00FB0D890BCC2B7A08F2007B08F30082311F
:1007AA003722833103147D0886008701010D7D07F6
:1007BA00FC007C08860087017008C03F7108C13FB1
:1007CA000130FA007D08860087017A0881072B2C00
:1007DA002B2C0E19F12BF22B2B2C790886000130C9
:1007EA008700153001020318FB2BFC2B2B2C7D30C4
:1007FA00F0000030F1001608FB001508FA00073077
:10080A00FA35FB0D890B052C7A08F2007B08F300F8
:10081A008231372283310314790886000130870038
:10082A00010D7D07FC007C08860087017008C03F27
:10083A007108C13F0130FA0079088600013087004B
:10084A007A0881072B2C2B2C2B2C2B2C7D0886002D
:10085A008701153001020318332C342C3F2C7908F8
:10086A0086000130870015300102031C3D2C3E2C06
:10087A00B52B3F2C20009713950196010800200004
:10088A00A101F31F492C4A2C572CF009F109F2094E
:10089A00F309F00A0319F10A0319F20A0319F30A10
:1008AA00A101A10AF71F5A2C5B2C6B2CF409F5093C
:1008BA00F609F709F40A0319F50A0319F60A0319DE
:1008CA00F70A0130F8007808A1066B2C0030A50061
:1008DA000030A4000030A3000030A20073087204A4
:1008EA007104700403197A2C7B2CC22CA001A00A73
:1008FA008A2C0130F035F10DF20DF30D890B7F2CA6
:10090A000130F8007808A0078A2CF31F8D2C8E2C52
:10091A007E2C902C902C0130A235A30DA40DA50D90
:10092A00890B912C73087702031DA52C7208760295
:10093A00031DA52C71087502031DA52C70087402ED
:10094A00031CA82CA92CB32C7008F4027108F53BDF
:10095A007208F63B7308F73B2214B32C0130F336C6
:10096A00F20CF10CF00C890BB42C0130A002031D1F
:10097A00BF2CC02C902CC22CC22C21080319C62CC7
:10098A00C72CD32CA209A309A409A509A20A0319F1
:10099A00A30A0319A40A0319A50AD32C2508F300EC
:1009AA002408F2002308F1002208F000DC2C0800D9
:1009BA002000CC00410886008701403FC300413F28
:1009CA00C40043088400440885001200253A031D28
:1009DA00EF2CF02C8A2D410886008701013081070F
:1009EA0041310318810AE201E301E601E701FF3020
:1009FA00E400FF30E500410886008701403FC3005C
:100A0A00413FC40043088400440885001200643A48
:100A1A000319102D112D232D410886008701403F0F
:100A2A00C300413FC4004308840044088500120003
:100A3A00693A031D212D222D532D232D41088600AD
:100A4A0087010130810741310318810A4208860073
:100A5A00870101088400850102308107003FC30035
:100A6A00013FC4004308C8004408C900890D893BF6
:100A7A008909CA00CB004B08AF004A08AE004908F2
:100A8A00AD004808AC004C088631B52684312000F8
:100A9A002D08C2002C08C100B12DB12D41088600D5
:100AAA008701403FC300413FC40043088400440813
:100ABA0085001200253A031D632D642D7E2D410801
:100ACA00860087010130810741310318810A2530E8
:100ADA00F0000030F1004C08C3004308F2008131F5
:100AEA003921843101302000C1000030C200B12D0B
:100AFA00B12D410886008701013081074131031871
:100B0A00810AC101C201B12DB12D410886008701B8
:100B1A00403FC300413FC4004308840044088500A5
:100B2A000008C500C6014508F0004608F1004C0857
:100B3A00C7004708F2008131392184312000410879
:100B4A00860087010130810741310318810A01308B
:100B5A00C1000030C200B12D080000302000B100F1
:100B6A000030B0000030AF000030AE000030B500F9
:100B7A000030B4000030B3000030B200BE010A30C9
:100B8A003E02031CC92DCA2DCC2D482E482E3E08E4
:100B9A00A200A301A235A30D2208033EA40000303F
:100BAA00233DA5002408200786002508213D87004B
:100BBA003E08A600A701A635A70D2608013EA800F3
:100BCA000030273DA9002808200784002908213D74
:100BDA008500003FAA00013FAB00AA09AB09AA0A97
:100BEA000319AB0A403F2A07AC00413F2B3DAD0039
:100BFA002C08AE072D08AF3D0030B03DB13D3E0890
:100C0A00A200A301A235A30D2208053EA4000030CC
:100C1A00233DA5002408200786002508213D8700DA
:100C2A003E08A600A701A635A70D2608033EA80080
:100C3A000030273DA9002808200784002908213D03
:100C4A008500003FAA00013FAB00AA09AB09AA0A26
:100C5A000319AB0A403F2A07AC00413F2B3DAD00C8
:100C6A002C08B2072D08B33D0030B43DB53D3E35E2
:100C7A00023EA2002208BE000A303E02031C462E93
:100C8A00472ECC2D482E0030F3000030F200003001
:100C9A00F1000A30F0003108F7003008F6002F089A
:100CAA00F5002E08F4008131D62185317108200023
:100CBA00BB007008BA000030F3000030F2000030C8
:100CCA00F1000A30F0003508F7003408F60033085E
:100CDA00F5003208F4008131D621853171082000EF
:100CEA00BD007008BC003D083B02031D7E2E3C0877
:100CFA003A02031C812E822E872E3D08B7003C083B
:100D0A00B6008C2E3B08B7003A08B6008C2E200895
:100D1A002B3E86000030213D87003608C03F370849
:100D2A00C13F3B083D02031D9C2E3A083C02031CAE
:100D3A009F2EA02EA52E3D08B9003C08B800AA2E69
:100D4A003B08B9003A08B800AA2E20082D3E8600B2
:100D5A000030213D87003808C03F3908C13F0800EC
:100D6A002000B6002F08BE002E08BD002D08BC00CA
:100D7A002C08BB00BE1BC22EC42E0130C52E00306B
:100D8A00B000B1013008B9003108BA0039083A0494
:100D9A000319D02ED12EDC2EBB09BC09BD09BE0910
:100DAA00BB0A0319BC0A0319BD0A0319BE0AE51BCB
:100DBA00DF2EE02EE42EFD30E605FF30E70565085C
:100DCA00803AB00080303002031DED2E01306402FB
:100DDA000318F02EF12EF72E01302000B400003057
:100DEA00B500FC2E20006508B5006408B40063084D
:100DFA00B8006208B70039083A04031D052F062F08
:100E0A000B2F661D092F0A2F0F2F0B2FFF30B70745
:100E1A00FF30B83D1F30BF000030C0003F08CF3E52
:100E2A00860087018101672FFF302000BF07FF304E
:100E3A00C03D0030F3000030F2000030F1000A300B
:100E4A00F0003E08F7003D08F6003C08F5003B08B4
:100E5A00F4008231A02286317108FC007008FB0080
:100E6A0080319E2086317B08303E2000B0003F084A
:100E7A00CF3E8600870130088100FF30B407FF307B
:100E8A00B53DFF30B707FF30B83D0030F300003002
:100E9A00F2000030F1000A30F0003E08F7003D0889
:100EAA00F6003C08F5003B08F400843144248631FE
:100EBA0073082000BE007208BD007108BC007008EB
:100ECA00BB00672F4008803AB00080303002031D13
:100EDA00702F01303F02031C732F742FA02F2000A4
:100EEA003E083D043C043B04031D7C2F7D2F192F33
:100EFA003508803AB00080303002031D862F013059
:100F0A0034020318892F8A2F192F20003808803AB3
:100F1A00B00080303002031D942F01303702031CC9
:100F2A00972F982FA02F2000E6189C2F9D2F192F5E
:100F3A00A02FA02FA02F200039083A04031DA62FA6
:100F4A00A72FAC2F661DAA2FAB2FC92FAC2FFF30AE
:100F5A00BF07FF30C03D39083A04031DB52FB62F2D
:100F6A00BB2F2B30B2000030B300C02F2D30B2009F
:100F7A000030B300C02F3208B0003F08CF3E8600D1
:100F8A00870130088100C92F3F08CF3EB0003008E2
:100F9A00A4003808A6003708A500360881317D214B
:100FAA00863120002508AD002408AC00DC2F08009B
:100FBA006030840000308500083080316620873137
:100FCA00CF308400003085002030803166208731A0
:100FDA00A0308400013085002F30803166208731AF
:100FEA0020308400023085002F308031662087311E
:100FFA0020008331242B4634693472346D347734BB
:10100A00613472346534203476343A3420342534E9
:10101A0064342E34253464340034543468346534EA
:10102A006E3420347034723465347334733420343B
:10103A00533474346134723474340034533477342E
:10104A0069346E3467342034503465346E34643411
:10105A0075346C3475346D347334003452347534E9
:10106A006E346E3469346E3467342E342E342E3432
:02107A00003440
:020000040001F9
:08000E008AD7F1FDFCFFFCFFA5
:00000001FF
