:020000040000FA
:08000000803102288731DD2F59
:100116000800640080010131890B8D2800345730B6
:10012600FD007D082000DD005608CE005508CD00F4
:100136005D30FD007D08CF00003081311A2180310D
:1001460020004E08DC004D08DB00A92808007C08CA
:10015600803A2000A00080302002031DB428013020
:100166007B020318B728B828C5287B092000A00001
:100176007C09A100A00A0319A10A2008FB00210896
:10018600FC00C628C6280800F7007708F2007208A7
:10019600F600D2280130F2007208F707D228770855
:1001A600860087010108031DD928DA28CD28DB2817
:1001B6007608F2000030F300F209F309F20A031997
:1001C600F30A7708F4000030F50072087407F000AF
:1001D6007308753DF100EF2808002000A300A10177
:1001E600A20109292008F900FA017908F0007A0825
:1001F600F1007808FB007B08F2008131452180314F
:1002060001302000A1070030A23D0929210823075B
:10021600F9007908860087010108FA007A08A0002B
:100226002008031D17291829F52819290800200078
:10023600D2004E08D4004D08D300E001E101352973
:100246005330D0005008C1004F08D1005108C200F9
:1002560052088431DD24813120004108E00742083C
:10026600E13D352953088400540885001200031D1A
:100276003D293E2923293F296108CE006008CD008B
:10028600442908007208031949294A295029720885
:10029600031D4E294F2955295029700880318B207E
:1002A600813188297208033E860087011600010401
:1002B60003195E295F297D297208033E860087019E
:1002C600403FF300413FF400720A86008701403F39
:1002D600F500413FF6007608803AF7007408803A48
:1002E6007702031D78297308750203187B297C2978
:1002F60088297D29720A86008701013081074131EC
:100306000318810A88298829882908002000AB005B
:10031600661C8E298F2998292B08FC007C08F8007A
:1003260024088031F020813198292000A61B9C29C1
:100336009D29A2292608AA002508A900A429A90101
:10034600AA01A701A801B9292030F0000030F10068
:1003560020002B08FC007C08F20081314521813108
:1003660001302000A7070030A83DB9292808803AA7
:10037600FC002A08803A7C02031DC32929082702AB
:10038600031CC629C729A72920006618CB29CC2912
:10039600D4292B08FC007C08F80024088031F020C2
:1003A6008131200024088031C720813120002908AE
:1003B6007007A4002A08713DA500E1290800003055
:1003C600FC000030FB000030FA000030F900730832
:1003D6007204710470040319F129F229392AFD0106
:1003E600FD0A012A0130F035F10DF20DF30D890BEE
:1003F600F6290130F8007808FD07012AF31F042AC0
:10040600052AF529072A072A0130F935FA0DFB0DC9
:10041600FC0D890B082A73087702031D1C2A720833
:100426007602031D1C2A71087502031D1C2A70081A
:100436007402031C1F2A202A2A2A7008F402710853
:10044600F53B7208F63B7308F73B79142A2A01300C
:10045600F336F20CF10CF00C890B2B2A0130FD025D
:10046600031D362A372A072A392A392A7C08F30037
:100476007B08F2007A08F1007908F000422A0800A9
:10048600F601F11F472A482A502AF009F109F00A15
:100496000319F10AF601F60A502AF31F532A542AC1
:1004A6005E2AF209F309F20A0319F30A0130F4008D
:1004B6007408F6065E2AF701F8017008710403193C
:1004C600652A662A9B2AF501F50A732A0130F0355A
:1004D600F10D890B6A2A0130F4007408F507732AB6
:1004E600F11F762A772A692A792A792A0130F7357F
:1004F600F80D890B7A2A71087302031D842A700885
:100506007202031C872A882A8E2A7008F202710852
:10051600F33B77148E2A0130F136F00C890B8F2AC3
:100526000130F502031D982A992A792A9B2A9B2ACB
:10053600760803199F2AA02AA62AF709F809F70AB6
:100546000319F80AA62A7808F1007708F000AB2A02
:100556000800A030860001308700A03084000030FB
:1005660085002F302000DE0016001A00DE0BB72AA9
:10057600203086000230870020308400013085005C
:100586002F30DE0016001A00DE0BC52A8C121B3037
:1005960021008C0006308E001030200097004D3070
:1005A60098008C162A30D5008830D6000130D70046
:1005B6000030D8000030D900DA0080319220823134
:1005C6007A302000DF00C130DE008130890BE92A55
:1005D600DE0BE92ADF0BE92A003200302000D500C5
:1005E6008830D600803192208231F92A20000C1AF8
:1005F600FD2AFE2AF92A8C12002B0C1E032B042B33
:10060600002B8C164230D5008830D60080319220DF
:10061600823120302000DE005E08F900A0308331F0
:10062600B1238231A0302000A0000030A100853126
:10063600B225823120302000A0000130A100853192
:10064600B2258231262B262B262B262B20008C1218
:1006560080310228FA01F71F312B322B3F2BF40988
:10066600F509F609F709F40A0319F50A0319F60A52
:100676000319F70AFA01FA0AF31F422B432B4F2BF1
:10068600F009F109F209F309F00A0319F10A03194D
:10069600F20A0319F30A4F2B7308720471047004EB
:1006A6000319562B572B962BF901F90A662B0130A5
:1006B600F035F10DF20DF30D890B5B2B0130F800CF
:1006C6007808F907662BF31F692B6A2B5A2B6C2BBC
:1006D6006C2B73087702031D7A2B72087602031DB2
:1006E6007A2B71087502031D7A2B70087402031C9D
:1006F6007D2B7E2B872B7008F4027108F53B720860
:10070600F63B7308F73B872B0130F336F20CF10CFE
:10071600F00C890B882B0130F902031D932B942BC7
:100726006C2B962B962B7A0803199A2B9B2BA72BAF
:10073600F409F509F609F709F40A0319F50A031984
:10074600F60A0319F70AA72B7708F3007608F200D2
:100756007508F1007408F000B02B0800FD002000B9
:1007660097172B2C20008E18B92BBA2BEE2B7D0851
:1007760086008701153001020318C22BC32B2B2CD0
:100786007D30F0000030F1001608FB001508FA0075
:100796000730FA35FB0D890BCC2B7A08F2007B0863
:1007A600F30082314322833103147D0886008701DA
:1007B600010D7D07FC007C08860087017008C03F9C
:1007C6007108C13F0130FA007D08860087017A086A
:1007D60081072B2C2B2C0E19F12BF22B2B2C7908A5
:1007E600860001308700153001020318FB2BFC2B15
:1007F6002B2C7D30F0000030F1001608FB001508A8
:10080600FA000730FA35FB0D890B052C7A08F20041
:100816007B08F30082314322833103147908860072
:1008260001308700010D7D07FC007C0886008701EA
:100836007008C03F7108C13F0130FA007908860090
:10084600013087007A0881072B2C2B2C2B2C2B2C84
:100856007D0886008701153001020318332C342CDD
:100866003F2C790886000130870015300102031CF1
:100876003D2C3E2CB52B3F2C20009713950196015D
:1008860008002000A101F31F492C4A2C572CF0091F
:10089600F109F209F309F00A0319F10A0319F20A38
:1008A6000319F30AA101A10AF71F5A2C5B2C6B2C22
:1008B600F409F509F609F709F40A0319F50A031903
:1008C600F60A0319F70A0130F8007808A1066B2C1E
:1008D6000030A5000030A4000030A3000030A200C4
:1008E600730872047104700403197A2C7B2CC22CD1
:1008F600A001A00A8A2C0130F035F10DF20DF30D9E
:10090600890B7F2C0130F8007808A0078A2CF31F8A
:100916008D2C8E2C7E2C902C902C0130A235A30D84
:10092600A40DA50D890B912C73087702031DA52C28
:1009360072087602031DA52C71087502031DA52CED
:1009460070087402031CA82CA92CB32C7008F4029E
:100956007108F53B7208F63B7308F73B2214B32C7B
:100966000130F336F20CF10CF00C890BB42C01308B
:10097600A002031DBF2CC02C902CC22CC22C210817
:100986000319C62CC72CD32CA209A309A409A509AF
:10099600A20A0319A30A0319A40A0319A50AD32C48
:1009A6002508F3002408F2002308F1002208F000CD
:1009B600DC2C08002000CC00410886008701403F5F
:1009C600C300413FC4004308840044088500120068
:1009D600253A031DEF2CF02C8A2D4108860087014D
:1009E6000130810741310318810AE201E301E60182
:1009F600E701FF30E400FF30E5004108860087018B
:100A0600403FC300413FC4004308840044088500BA
:100A16001200643A0319102D112D232D410886006A
:100A26008701403FC300413FC40043088400440897
:100A360085001200693A031D212D222D532D232DE9
:100A46004108860087010130810741310318810A78
:100A5600420886008701010884008501023081076B
:100A6600003FC300013FC4004308C8004408C90052
:100A7600890D893B8909CA00CB004B08AF004A089B
:100A8600AE004908AD004808AC004C088631B526D2
:100A9600843120002D08C2002C08C100B12DB12DD3
:100AA600410886008701403FC300413FC400430818
:100AB6008400440885001200253A031D632D642D29
:100AC6007E2D4108860087010130810741310318D8
:100AD600810A2530F0000030F1004C08C3004308BD
:100AE600F20081314521843101302000C1000030FF
:100AF600C200B12DB12D4108860087010130810762
:100B060041310318810AC101C201B12DB12D41083D
:100B160086008701403FC300413FC400430884006C
:100B2600440885000008C500C6014508F0004608CF
:100B3600F1004C08C7004708F20081314521843195
:100B460020004108860087010130810741310318E2
:100B5600810A0130C1000030C200B12D080000300A
:100B66002000B1000030B0000030AF000030AE0011
:100B76000030B5000030B4000030B3000030B200E1
:100B8600BE010A303E02031CC92DCA2DCC2D482EAB
:100B9600482E3E08A200A301A235A30D2208033E5B
:100BA600A4000030233DA500240820078600250860
:100BB600213D87003E08A600A701A635A70D2608F9
:100BC600013EA8000030273DA90028082007840020
:100BD6002908213D8500003FAA00013FAB00AA0974
:100BE600AB09AA0A0319AB0A403F2A07AC00413FEA
:100BF6002B3DAD002C08AE072D08AF3D0030B03DB3
:100C0600B13D3E08A200A301A235A30D2208053E70
:100C1600A4000030233DA5002408200786002508EF
:100C2600213D87003E08A600A701A635A70D260888
:100C3600033EA8000030273DA900280820078400AD
:100C46002908213D8500003FAA00013FAB00AA0903
:100C5600AB09AA0A0319AB0A403F2A07AC00413F79
:100C66002B3DAD002C08B2072D08B33D0030B43D36
:100C7600B53D3E35023EA2002208BE000A303E02C5
:100C8600031C462E472ECC2D482E0030F300003094
:100C9600F2000030F1000A30F0003108F7003008A9
:100CA600F6002F08F5002E08F4008131E221853187
:100CB60071082000BB007008BA000030F300003055
:100CC600F2000030F1000A30F0003508F700340871
:100CD600F6003308F5003208F4008131E22185314F
:100CE60071082000BD007008BC003D083B02031DD2
:100CF6007E2E3C083A02031C812E822E872E3D084A
:100D0600B7003C08B6008C2E3B08B7003A08B60080
:100D16008C2E20082B3E86000030213D87003608A9
:100D2600C03F3708C13F3B083D02031D9C2E3A08D1
:100D36003C02031C9F2EA02EA52E3D08B9003C08A0
:100D4600B800AA2E3B08B9003A08B800AA2E200817
:100D56002D3E86000030213D87003808C03F390807
:100D6600C13F08002000B6002F08BE002E08BD00B7
:100D76002D08BC002C08BB00BE1BC22EC42E0130A1
:100D8600C52E0030B000B1013008B9003108BA00F4
:100D960039083A040319D02ED12EDC2EBB09BC0922
:100DA600BD09BE09BB0A0319BC0A0319BD0A03190A
:100DB600BE0AE51BDF2EE02EE42EFD30E605FF30F1
:100DC600E7056508803AB00080303002031DED2E3D
:100DD600013064020318F02EF12EF72E01302000A8
:100DE600B4000030B500FC2E20006508B50064088C
:100DF600B4006308B8006208B70039083A04031D56
:100E0600052F062F0B2F661D092F0A2F0F2F0B2FCD
:100E1600FF30B707FF30B83D1F30BF000030C000BD
:100E26003F08CF3E860087018101672FFF302000F3
:100E3600BF07FF30C03D0030F3000030F200003045
:100E4600F1000A30F0003E08F7003D08F6003C08C5
:100E5600F5003B08F40083312D2386317108FC0030
:100E66007008FB008031AA2086317B08303E2000C6
:100E7600B0003F08CF3E8600870130088100FF3072
:100E8600B407FF30B53DFF30B707FF30B83D00303F
:100E9600F3000030F2000030F1000A30F0003E08A6
:100EA600F7003D08F6003C08F5003B08F4008431E5
:100EB6004424863173082000BE007208BD00710804
:100EC600BC007008BB00672F4008803AB000803035
:100ED6003002031D702F01303F02031C732F742F45
:100EE600A02F20003E083D043C043B04031D7C2F3C
:100EF6007D2F192F3508803AB00080303002031D4F
:100F0600862F013034020318892F8A2F192F2000CB
:100F16003808803AB00080303002031D942F01302B
:100F26003702031C972F982FA02F2000E6189C2F1E
:100F36009D2F192FA02FA02FA02F200039083A048B
:100F4600031DA62FA72FAC2F661DAA2FAB2FC92FC7
:100F5600AC2FFF30BF07FF30C03D39083A04031DF0
:100F6600B52FB62FBB2F2B30B2000030B300C02FE9
:100F76002D30B2000030B300C02F3208B0003F0859
:100F8600CF3E8600870130088100C92F3F08CF3E3B
:100F9600B0003008A4003808A6003708A5003608B7
:100FA60081318921863120002508AD002408AC0056
:100FB600DC2F080060308400003085000830803166
:100FC6008C208731CF30840000308500203080317E
:100FD6008C208731A0308400013085002F3080318D
:100FE6008C20873120308400023085002F308031FC
:100FF6008C20873120008231AC2A53346534743416
:101006002034703465346E34643475346C3475341D
:101016006D347334203469346E3420346D346F3457
:10102600743469346F346E342C3420347434683438
:1010360065346E34203470347234653473347334EA
:101046002034533474346134723474340034463486
:10105600693472346D3477346134723465342034D3
:10106600763465347234733469346F346E343A349A
:101076002034253464342E34253464340034523418
:1010860075346E346E3469346E3467342E342E34CF
:041096002E340034C0
:020000040001F9
:08000E008AD7F1FDFCFFFCFFA5
:00000001FF
