:020000040000FA
:0200000048288E
:100008007E14803120008E1C0A280B2826281530E3
:10001800210020020318112812284628200015085C
:10002800F000F10121002035A13E8600870170080B
:10003800C03F7108C13F0130F0007008A007462892
:10004800462846280E1D29282A2846281530220029
:100058002002031830283128462820001D08F00007
:10006800F10122002035A13E860087017008C03FBB
:100078007108C13F0130F0007008A00746284628E3
:10008800462846287E10090049286430840000303C
:10009800850008308631EB268031A030840000309E
:1000A80085004F308631EB268031203084000130C6
:1000B80085002F308631EB2680317E102000832C7E
:1000C8002000B9003208C1003108C0003008BF0064
:1000D8002F08BE00C11B7128732801307428003016
:1000E800B300B4013308BC003408BD003C083D042B
:1000F80003197F2880288B28BE09BF09C009C109B8
:10010800BE0A0319BF0A0319C00A0319C10AE91B69
:100118008E288F289328FD30EA05FF30EB05690803
:10012800803AB30080303302031D9C2801306802F6
:1001380003189F28A028A62801302000B700003007
:10014800B800AB2820006908B8006808B70067083D
:10015800BB006608BA003C083D04031DB428B52856
:10016800BA286A1DB828B928BE28BA28FF30BA07A5
:10017800FF30BB3D1F30C2000030C3004208CF3EF5
:100188008600870181011729FF302000C207FF3050
:10019800C33D0030F5000030F4000030F3000A30B1
:1001A800F2004108F9004008F8003F08F7003E084F
:1001B800F6008331FE23803173082000A300720803
:1001C800A20086319326803120002208303EB300F9
:1001D8004208CF3E8600870133088100FF30B70709
:1001E800FF30B83DFF30BA07FF30BB3D0030F500A7
:1001F8000030F4000030F3000A30F2004108F90042
:100208004008F8003F08F7003E08F60083316523F0
:10021800803175082000C1007408C0007308BF0051
:100228007208BE0017294308803AB30080303302B1
:10023800031D202901304202031C232924295029A7
:100248002000410840043F043E04031D2C292D29A9
:10025800C8283808803AB30080303302031D362995
:1002680001303702031839293A29C82820003B08E9
:10027800803AB30080303302031D442901303A022A
:10028800031C4729482950292000EA184C294D29E0
:10029800C82850295029502920003C083D04031D36
:1002A800562957295C296A1D5A295B2979295C290D
:1002B800FF30C207FF30C33D3C083D04031D6529DC
:1002C80066296B292B30B5000030B60070292D3017
:1002D800B5000030B60070293508B3004208CF3E9B
:1002E800860087013308810079294208CF3EB30090
:1002F8003308A7003B08A9003A08A8003908853147
:100308004E25803120002808B0002708AF008C292E
:10031800080000302000B6000030B5000030B400FE
:100328000030B3000030BA000030B9000030B80027
:100338000030B700C3010A304302031CA429A529D1
:10034800A729232A232A4308A700A801A735A80D0F
:100358002708033EA9000030283DAA0029082507E0
:1003680086002A08263D87004308AB00AC01AB3560
:10037800AC0D2B08013EAD0000302C3DAE002D0821
:10038800250784002E08263D8500003FAF00013F69
:10039800B000AF09B009AF0A0319B00A403F2F07F0
:1003A800B100413F303DB2003108B3073208B43DD7
:1003B8000030B53DB63D4308A700A801A735A80DF4
:1003C8002708053EA9000030283DAA00290825076E
:1003D80086002A08263D87004308AB00AC01AB35F0
:1003E800AC0D2B08033EAD0000302C3DAE002D08AF
:1003F800250784002E08263D8500003FAF00013FF9
:10040800B000AF09B009AF0A0319B00A403F2F077F
:10041800B100413F303DB2003108B7073208B83D5E
:100428000030B93DBA3D4335023EA7002708C30056
:100438000A304302031C212A222AA729232A003032
:10044800F5000030F4000030F3000A30F2003608FE
:10045800F9003508F8003408F7003308F60084314D
:10046800EC24813173082000C0007208BF000030FE
:10047800F5000030F4000030F3000A30F2003A08CA
:10048800F9003908F8003808F7003708F600843111
:10049800EC24813173082000C2007208C1004208B0
:1004A8004002031D592A41083F02031C5C2A5D2AA9
:1004B800622A4208BC004108BB00672A4008BC0009
:1004C8003F08BB00672A25082B3E86000030263DE2
:1004D80087003B08C03F3C08C13F40084202031D5B
:1004E800772A3F084102031C7A2A7B2A802A42087D
:1004F800BE004108BD00852A4008BE003F08BD0077
:10050800852A25082D3E86000030263D87003D08B7
:10051800C03F3E08C13F08002000CF0044088600C5
:100528008701403FC600413FC7004608840047088E
:1005380085001200253A031DA22AA32A3D2B440850
:10054800860087010130810741310318810AE601DD
:10055800E701EA01EB01FF30E800FF30E900440859
:1005680086008701403FC600413FC7004608840017
:10057800470885001200643A0319C32AC42AD62AF8
:10058800440886008701403FC600413FC70046082F
:100598008400470885001200693A031DD42AD52A29
:1005A800062BD62A4408860087010130810741318D
:1005B8000318810A4508860087010108840085011F
:1005C80002308107003FC600013FC7004608CB0044
:1005D8004708CC00890D893B8909CD00CE004E081B
:1005E800B2004D08B1004C08B0004B08AF004F08EE
:1005F80080316420823120003008C5002F08C400F3
:10060800642B642B440886008701403FC600413FA5
:10061800C70046088400470885001200253A031DD4
:10062800162B172B312B44088600870101308107D0
:1006380041310318810A2530F2000030F3004F08D9
:10064800C6004608F4008531A72582310130200014
:10065800C4000030C500642B642B44088600870161
:100668000130810741310318810AC401C501642B97
:10067800642B440886008701403FC600413FC700FD
:1006880046088400470885000008C800C9014808D2
:10069800F2004908F3004F08CA004A08F4008531FF
:1006A800A725823120004408860087010130810790
:1006B80041310318810A0130C4000030C500642BA1
:1006C80008002000A101F51F6A2B6B2B782BF2097B
:1006D800F309F409F509F20A0319F30A0319F40AEC
:1006E8000319F50AA101A10AF91F7B2B7C2B8C2B7E
:1006F800F609F709F809F909F60A0319F70A0319B7
:10070800F80A0319F90A0130FA007A08A1068C2BB5
:100718000030A5000030A4000030A3000030A20083
:10072800750874047304720403199B2B9C2BE32B28
:10073800A001A00AAB2B0130F235F30DF40DF50D35
:10074800890BA02B0130FA007A08A007AB2BF51F04
:10075800AE2BAF2B9F2BB12BB12B0130A235A30DA4
:10076800A40DA50D890BB22B75087902031DC62BA4
:1007780074087802031DC62B73087702031DC62B65
:1007880072087602031CC92BCA2BD42B7208F602F6
:100798007308F73B7408F83B7508F93B2214D42B0F
:1007A8000130F536F40CF30CF20C890BD52B013023
:1007B800A002031DE02BE12BB12BE32BE32B210837
:1007C8000319E72BE82BF42BA209A309A409A5090F
:1007D800A20A0319A30A0319A40A0319A50AF42BE8
:1007E8002508F5002408F4002308F3002208F20085
:1007F800FD2B08002000A101F91F032C042C112C4B
:10080800F609F709F809F909F60A0319F70A0319A5
:10081800F80A0319F90AA101A10AF51F142C152CCD
:10082800212CF209F309F409F509F20A0319F30A6C
:100838000319F40A0319F50A212C750874047304C2
:1008480072040319282C292C682CA001A00A382C22
:100858000130F235F30DF40DF50D890B2D2C013017
:10086800FA007A08A007382CF51F3B2C3C2C2C2CBE
:100878003E2C3E2C75087902031D4C2C7408780216
:10088800031D4C2C73087702031D4C2C720876024A
:10089800031C4F2C502C592C7208F6027308F73B96
:1008A8007408F83B7508F93B592C0130F536F40CFF
:1008B800F30CF20C890B5A2C0130A002031D652C95
:1008C800662C3E2C682C682C210803196C2C6D2C86
:1008D800792CF609F709F809F909F60A0319F70A4C
:1008E8000319F80A0319F90A792C7908F500780828
:1008F800F4007708F3007608F200822C0800200044
:100908008C121B3021008C0006308E0020008C16C3
:10091800B030D8008630D9000130DA000030DB0072
:100928000030DC00DD008631C82684317A302000B2
:10093800E300C130E2008130890BA02CE20BA02C2F
:10094800E30BA02C003216302000D8008630D900E6
:100958008631C8268431B02C20000C1AB42CB52C52
:10096800B02C8C12B72C0C1EBA2CBB2CB72C8C16A6
:10097800E030D8008630D9008631C8268431C52CAD
:10098800C52C1530210020020318CB2CCC2CD52CDB
:10099800153022002002031CD22CD32CC52CD52CB8
:1009A800D52CA0302000A5000030A60081318D2173
:1009B800843120302000A5000130A60081318D212E
:1009C8008431E62CE62CE62CE62C20008C124828F4
:1009D80000302000A3000030A2000030A100003049
:1009E800A00075087404730472040319FC2CFD2C10
:1009F800442DA401A40A0C2D0130F235F30DF40D99
:100A0800F50D890B012D0130FA007A08A4070C2D89
:100A1800F51F0F2D102D002D122D122D0130A03590
:100A2800A10DA20DA30D890B132D75087902031DC5
:100A3800272D74087802031D272D73087702031DDC
:100A4800272D72087602031C2A2D2B2D352D7208AE
:100A5800F6027308F73B7408F83B7508F93B201455
:100A6800352D0130F536F40CF30CF20C890B362DCC
:100A78000130A402031D412D422D122D442D442D79
:100A88002308F5002208F4002108F3002008F200EA
:100A98004D2D08002000AE006A1C532D542D5D2DED
:100AA8002E08FB007B08FA0027088631402685318E
:100AB8005D2D2000A91B612D622D672D2908AD0031
:100AC8002808AC00692DAC01AD01AA01AB017E2D4F
:100AD8002030F2000030F30020002E08FB007B08D5
:100AE800F4008531A725853101302000AA070030A0
:100AF800AB3D7E2D2B08803AFB002D08803A7B0207
:100B0800031D882D2C082A02031C8B2D8C2D6C2D7F
:100B180020006A18902D912D992D2E08FB007B0836
:100B2800FA002708863140268531200027088631BB
:100B38006A26853120002C087207A7002D08733D0E
:100B4800A800A62D080074080319AB2DAC2DB22DF2
:100B58007408031DB02DB12DB72DB22D7208863142
:100B6800F1268531EA2D7408033E860087011600B8
:100B780001040319C02DC12DDF2D7408033E860022
:100B88008701403FF500413FF600740A860087015F
:100B9800403FF700413FF8007808803AF9007608AE
:100BA800803A7902031DDA2D750877020318DD2DC6
:100BB800DE2DEA2DDF2D740A8600870101308107BA
:100BC80041310318810AEA2DEA2DEA2D0800200098
:100BD800D5005108D7005008D600E401E501062EDB
:100BE8005630D3005308C4005208D4005408C50036
:100BF800550882319022853120004408E4074508D1
:100C0800E53D062E56088400570885001200031D8E
:100C18000E2E0F2EF42D102E6508D1006408D0007A
:100C2800152E080053346534743420347034653418
:100C38006E34643475346C3475346D3473342034E4
:100C480069346E3420346D346F34743469346F34DD
:100C58006E342C3420347434683465346E34203463
:100C680070347234653473347334203453347434C8
:100C780061347234743400342000A600A401A50144
:100C8800592E2308A000A1012008F2002108F30032
:100C98007A08A2002208F4008531A72586310130A0
:100CA8002000A4070030A53D592E24082607A000DF
:100CB8002008860087010108A1002108A300230855
:100CC800031D672E682E452E692E0800F900790845
:100CD800F4007408F800752E0130F4007408F90760
:100CE800752E7908860087010108031D7C2E7D2E4C
:100CF800702E7E2E7808F4000030F500F409F5090E
:100D0800F40A0319F50A7908F6000030F7007408A8
:100D18007607F2007508773DF300922E0800200050
:100D28002308803AA40080302402031D9D2E013040
:100D380022020318A02EA12EAE2E20002209A40004
:100D48002309A500A40A0319A50A2408A200250856
:100D5800A300AF2EAF2E08004634693472346D34C8
:100D680077346134723465342034763465347234BF
:100D7800733469346F346E343A342034253464342F
:100D88002E342534643400345A302000DE005E08E6
:100D9800E1005908D1005808D0006130DE005E0833
:100DA800D20000308531EB25863120005108E00063
:100DB8005008DF00DF2E0800523475346E346E346C
:100DC80069346E3467342E342E342E340034640083
:0C0DD80080010131890BEC2E0034080072
:020000040001F9
:08000E008AD7F1FDFCFFFCFFA5
:00000001FF
